:100000007580007590FE30A03830A14C30A2593078
:10001000A3687590FD30A07430A17630A27830A32B
:100020007A7590FB30A07930A17B30A27C30A37D23
:100030007590F730A07B30A17C30A27D30A3020107
:10004000007580817D2811C57580827D0A11C57576
:1000500080247D3211C501007580AA7D0311C5750C
:1000600080007D0311C50100780E9001117900E92F
:1000700093F58011D009D8F70100781490011F7909
:1000800000E993F58011D009D8F7010075800801C7
:10009000007580090100758008010075800B010062
:1000A00075800C01007E7401D97E6801D97E5C01E7
:1000B000D97E5701D97E4E01D97C143104DCFC7DF8
:1000C0001411C501007EFA7FC8DFFEDEFADDF622DC
:1000D0007EFA7FC8DFFEDEFA22C2A611E3D2A611A5
:1000E000E301008EF07F06DFFEDEFAAEF022C2A64C
:1000F00011F9D2A611F9DDF6228EF07F06DFFEDEC1
:10010000FAAEF0227E5F7D0A11EE7E3F7D0A11EE8F
:1001100022010204081020408040201008040281BF
:10012000C3E7FFE7C3810081C3E7FFE7C38100FFA7
:0301300000FF00CD
:00000001FF
