:1008DE001111222233334444555566667777888842
:1008C800EF1FAA0670011E4A600BE4FDEDC3947188
:0608D80050EE0D80F72236
:100800007580FFC280C2811208EE12090CE4F5085F
:10081000E50825E024DEF582E43408F583E493FC62
:10082000740193FDAF0812088B0508E508C394080E
:1008300040DE1208FDE4F508AF081208598F90AFAA
:1008400008120859EEF5A07F647E001208C805085A
:09085000E508C3940840E180DCD6
:05092E00D281C281220C
:07092700A200928202092EDA
:1008B000E4FEEF30E704D2828002C28212092EEFFA
:0808C00025E0FF0EBE08EB224B
:10088B00D280D200120927EF2440FF1208B0AF0428
:10089B001208B0AF051208B0C280D28020830512B7
:0508AB00092E80F82277
:10085900D280D200120927EF2480FF1208B020832A
:100869001AE4FCFDFB12092EED25E0FDEC33FC300A
:1008790083050DBD00010C0BBB10EAC280AF05AEAC
:02088900042247
:0F08EE00D280D2001209277F301208B0C28022B8
:0F08FD00D280D200120927E4FF1208B0C2802275
:0F090C00D280D2001209277F201208B0C28022A9
:0300000002091BD7
:0C091B00787FE4F6D8FD7581200208000A
:00000001FF
