:10087B00C6C6C6FEC6C6C600FE6268786862FE00C3
:10088B00F06060606062FE00F06060606062FE00BD
:10089B00386CC6C6C66C38000000000000000000B3
:1008AB00183C3C1818001800183C3C18180018008D
:1008BB00EF1FAA0670011E4A600BE4FDEDC3947195
:0608CB0050EE0D80F72243
:10080000750800750914750A00750B14E4F590F568
:1008100080E4FDE4FBFAEBAE027803CEA2E713CE50
:1008200013D8F875F008A4247BF582E43408F58326
:10083000EDFF3395E0FEE5822FF582E5833EF583FB
:10084000E493FFEB5407FEEFA806088002C333D8F9
:10085000FCFF30E70AEB2509F580E50B2DF5900B41
:10086000BB00010AEB64404A70AC0DBD08A5E4F57D
:0B08700090F5807F64FE1208BB8096AC
:030000000208D122
:0C08D100787FE4F6D8FD75810B0208006A
:00000001FF
