:0E086B00FC8FFCEFFD45FD6CFDB5FDF5FE3389
:10084700EF1FAA0670011E4A600BE4FDEDC3947109
:0508570050EE0D80F7DA
:01085C002279
:10080000D2AFD2A9758901E4FCECFF3395E0FEEF8D
:1008100025E0FFEE33FE746B2FF58274083EF583FE
:10082000E493F508740193F509F58AE508F58CD28F
:100830008C7FE87E03120847C28C0CBC07CB7FE894
:070840007E0312084780C08F
:03000B0002085D8B
:0E085D00C0E085098AE508F58CB280D0E03253
:030000000208797A
:0C087900787FE4F6D8FD758109020800C4
:00000001FF
