:0A08E500C577AAEFB0D1C65B0A0088
:1008C300EF1FAA0670011E4A600BE4FDEDC394718D
:0508D30050EE0D80F75E
:0108D80022FD
:10086E007F807E251208A87508FF750908750AE5B0
:10087E00AB08AA09A90A1208006016050AE50A7053
:10088E0002050914F9120800F5993099FDC29980F4
:0A089E00DF7F647E001208C380CDE6
:1008A800759850758920AC06AD077E707F80120858
:0B08B80019EFF404F58BF58DD28E22B1
:030000000208D91A
:0C08D900787FE4F6D8FD75810A02086EF5
:10080000BB010689828A83E0225002E722BBFE02F6
:09081000E32289828A83E4932229
:10081900BC000BBE0029EF8DF084FFADF022E4CCC3
:10082900F875F008EF2FFFEE33FEEC33FCEE9DEC8C
:10083900984005FCEE9DFE0FD5F0E9E4CEFD22EDD2
:10084900F8F5F0EE8420D21CFEADF075F008EF2F1C
:10085900FFED33FD4007985006D5F0F222C398FD0D
:050869000FD5F0EA22AA
:00000001FF
