:10086000EF1FAA0670011E4A600BE4FDEDC39471F0
:0508700050EE0D80F7C1
:010875002260
:10080000758902E4F58AF58CD28CD28175080A7F4D
:100810000AAE071FEE6014D280208D0BE58AD395B7
:100820000840F6C28080F2C28D80E60508E508B473
:10083000FADDE4F508E508C3940A50207F0AAE0704
:100840001FEE6014D280208D0BE58AD3950840F608
:10085000C28080F2C28D80E6150880D9B28180AC5A
:030000000208767D
:0C087600787FE4F6D8FD758108020800C8
:00000001FF
