:1000000074C0F58011490380F9C0E0E9C0E0792CA3
:10001000D9FED0E0F9D0E022C0E0E9C0E079FFD914
:10002000FE79ECD9FED0E0F9D0E022C0E0E8C0E0F3
:10003000E9C0E0781379FFD9FED8FA7971D9FE00CA
:10004000D0E0F9D0E0F8D0E022C0E0E8C0E0E9C0BC
:10005000E078C279FFD9FED8FAD0E0F9D0E0F8D044
:10006000E022C0E0EAC0E07A0A120049DAFBD0E000
:10007000FAD0E022C0E0EAC0E07A64120049DAFB7C
:10008000D0E0FAD0E022C0E0EBC0E07B0A120074BE
:10009000DBFBD0E0FAD0E022C0E0E9C0E0EF792C51
:0B00A000D9FED5E0F9D0E0F9D0E02255
:00000001FF
