:1000000079427A557B217CF043A0FF30A00B30A1D0
:100010001230A22330A32A0108E9F5806442F911C5
:1000200055010878189000627A00012CEA93F58057
:1000300011550AD8F70108EBF5806421FB11550131
:1000400008781490007A7A00014AEA93F5801155F5
:100050000AD8F701087D027EFA7FC8DFFEDEFADDEE
:10006000F622818181818181828082808280242424
:10007000242424244404440444047E3C1800183CF2
:0E0080007EFF7E3C1800183C7EFF00FF00FF54
:00000001FF
