:03000000020800F3
:0C080000787FE4F6D8FD758120020847DF
:1008C200E1D7B777B7D7E1FF016D6D6D6D6D91FF20
:1008D200837D7D7D7D7DBBFF017D7D7D7DBDC1FFF6
:0208F800C1003D
:1008E200EF1FAA0670011E4A600BE4FDEDC394716E
:0508F20050EE0D80F73F
:0108F70022DE
:10088C0075907FE4FCE4F9E4FBEC2B9008C293F543
:10089C00807F017E001208E27580FFAF907801EF37
:1008AC0008800103D8FDF5900BBB08DD09B90AD708
:0608BC000CBC20D180CD30
:10080C0002088CE493A3F8E493A34003F68001F26E
:10081C0008DFF48029E493A3F85407240CC8C333ED
:10082C00C4540F4420C8834004F456800146F6DFBC
:10083C00E4800B01020408102040809008F8E47E4C
:10084C00019360BCA3FF543F30E509541FFEE493B1
:10085C00A360010ECF54C025E060A840B8E493A378
:10086C00FAE493A3F8E493A3C8C582C8CAC583CAA3
:10087C00F0A3C8C582C8CAC583CADFE9DEE780BE5B
:0108FA0000FD
:00000001FF
