:1008D9001111222233334444555566667777888847
:1008C300EF1FAA0670011E4A600BE4FDEDC394718D
:0508D30050EE0D80F75E
:0108D80022FD
:10080000D2A5D2A4C2A7C2A6120900120916E4F505
:1008100008E50825E024D9F582E43408F583E4935B
:10082000FC740193FDAF081208880508E508C3941D
:100830000840DE12090BE4F508AF0812085A8F8051
:10084000AF0812085AEEF5907FF47E011208C30536
:0A08500008E508C3940840E180DCCD
:05092100D2A6C2A622CF
:0408F500D2A7D200B4
:0708F900A20092A5020921F3
:1008AB00E4FEEF30E704D2A58002C2A5120921EFC6
:0708BB0025E0FF0EBE08EB73
:0108C2002213
:100888001208F5EF2440FF1208ABAF041208ABAF13
:10089800051208ABC2A7D2A720A40512092180F827
:0308A800C2A722C2
:10085A001208F5EF2480FF1208AB20A41AE4FCFD6D
:10086A00FB120921ED25E0FDEC33FC30A4050DBD9A
:0D087A0000010C0BBB10EAC2A7AF05AE04D5
:01088700224E
:0B0900001208F57F301208ABC2A722DE
:0B090B001208F5E4FF1208ABC2A7229F
:0B0916001208F57F201208ABC2A722D8
:030000000208E90A
:0C08E900787FE4F6D8FD7581200208003D
:00000001FF
