:06086A00D2977F0A7E0018
:10087000EF1FAA0670011E4A600BE4FDEDC39471E0
:0508800050EE0D80F7B1
:010885002250
:10080000D294D2957F057E001208707F3F12089225
:10081000E4F509E50924B8FF1208927F4012089216
:10082000E4F508E4FF12089C0508E508C39440407D
:10083000F20509E509C3940840D97FBF1208927FE9
:1008400040120892E4F5087F8012089C0508E5082C
:10085000C3944040F2E4F5087F647E0012087005FE
:0A08600008E508C3944040F080EB67
:0A0892008F80C29612086AC29722F6
:0A089C008F80D29612086AC29722DC
:030000000208866D
:0C088600787FE4F6D8FD758109020800B7
:00000001FF
