:07034200050856696E3D003D
:0602F200D2977F017E009F
:1002F800EF1FAA0670011E4A600BE4FDEDC394715E
:0503080050EE0D80F72E
:01030D0022CD
:1002C80012030E7F80120338E4F50D7408250DF82B
:1002D800E6FF12032E050DE50DC3940440EDD2AFE1
:0A02E800D2A8D288C291D29180FE04
:03000300020204F2
:10020400C0E0C0F0C083C082C0D075D000C000C0C0
:0D02140001C002C003C004C005C006C00741
:10022100751100751000750F00750E00C290AFA01A
:10023100E48F11F510F50FF50E7FF47E01FDFCAB97
:1002410011AA10A90FA80E12005BE47BFFFAF9F8BE
:100251001200E68F118E108D0F8C0E120280D2903B
:04026100C291D291E3
:10026500D007D006D005D004D003D002D001D000ED
:0B027500D0D0D082D083D0F0D0E03297
:100280008E128F137F84120338AE12AF137C007D61
:10029000641203277F2E12032EAE12AF137C007D53
:1002A000641200067E007F0ACFCDCFCECCCE1203E3
:1002B00027AE12AF137C007D0A120006ED2430FF3A
:0802C00012032E7F5602032EEB
:07032700120006EF2430FF75
:0A032E008F80D2961202F2C29722CD
:0A0338008F80C2961202F2C29722D3
:10030E007F381203387F0C1203387F061203387FB2
:09031E00011203387F02020338CA
:0300000002017882
:0C017800787FE4F6D8FD7581130201BF0A
:10000600BC000BBE0029EF8DF084FFADF022E4CCDE
:10001600F875F008EF2FFFEE33FEEC33FCEE9DECA7
:10002600984005FCEE9DFE0FD5F0E9E4CEFD22EDED
:10003600F8F5F0EE8420D21CFEADF075F008EF2F37
:10004600FFED33FD4007985006D5F0F222C398FD28
:050056000FD5F0EA22C5
:10005B00E88FF0A4CC8BF0A42CFCE98EF0A42CFC44
:10006B008AF0EDA42CFCEA8EF0A4CDA8F08BF0A4C2
:10007B002DCC3825F0FDE98FF0A42CCD35F0FCEB21
:10008B008EF0A4FEA9F0EB8FF0A4CFC5F02ECD39E6
:0F009B00FEE43CFCEAA42DCE35F0FDE43CFC2253
:1000AA0075F008758200EF2FFFEE33FECD33CDCC0D
:1000BA0033CCC58233C5829BED9AEC99E582984090
:1000CA000CF582EE9BFEED9AFDEC99FC0FD5F0D66D
:1000DA00E4CEFBE4CDFAE4CCF9A88222B800C1B997
:1000EA000059BA002DEC8BF084CFCECDFCE5F0CBD5
:1000FA00F97818EF2FFFEE33FEED33FDEC33FCEB0E
:10010A0033FB10D703994004EB99FB0FD8E5E4F9C8
:10011A00FA227818EF2FFFEE33FEED33FDEC33FCB5
:10012A00C933C910D7059BE99A4007EC9BFCE99AA9
:10013A00F90FD8E0E4C9FAE4CCFB2275F010EF2FEE
:10014A00FFEE33FEED33FDCC33CCC833C810D707EE
:10015A009BEC9AE899400AED9BFDEC9AFCE899F829
:0E016A000FD5F0DAE4CDFBE4CCFAE4C8F922BC
:100184000202C8E493A3F8E493A34003F68001F2C7
:1001940008DFF48029E493A3F85407240CC8C3337C
:1001A400C4540F4420C8834004F456800146F6DF4B
:1001B400E4800B0102040810204080900342E47E96
:1001C400019360BCA3FF543F30E509541FFEE49340
:1001D400A360010ECF54C025E060A840B8E493A307
:1001E400FAE493A3F8E493A3C8C582C8CAC583CA32
:1001F400F0A3C8C582C8CAC583CADFE9DEE780BEEA
:0103490000B3
:00000001FF
