:03000000020F7B71
:0C0F7B00787FE4F6D8FD758146020DDE9B
:100F670022410C224359070653591E3D0D26415075
:040F77000A075251C2
:100DDE0078217C007D007BFF7A0F79677E007F0A89
:100DEE00120C43782B7C007D007BFF7A0F79717E8D
:100DFE00007F0A120C4375350AE4F536F53AF539DB
:100E0E00F538F537F53EF53DF53CF53BF542F54148
:100E1E00F540F53FF536E536C395355049AB42AA58
:100E2E0041A940A83FC000C001C002C003742B25D9
:100E3E0036F8E6FF74212536F8E6C39FFDE49400EC
:100E4E00FCAF05FE120C69AC06AD07E412099DD08D
:100E5E0003D002D001D0001208078F428E418D4080
:100E6E008C3F053680B0AC35E41209A2A804A90562
:100E7E00AA06AB07AF42AE41AD40AC3F1208FB1223
:100E8E000CDD8F3A8E398D388C37AC35E41209A2D1
:100E9E00A804A905AA06AB07AF42AE41AD40AC3FD0
:0E0EAE001208FB120EC18F3E8E3D8D3C8C3B18
:010EBC002213
:10080000020A0BE86480F8E933E83360110460F011
:10081000ED33EC337009E8FCE9FDEAFEEBFF22045E
:1008200060DED3EB9FEA9EE99DE8C2E78CF0C2F759
:1008300095F0400CE8CCF8E9CDF9EACEFAEBCFFB25
:100840001209D685D0F05804700320D5B3E804709F
:10085000075002B2D5020A1592D5EC0460F7E4CC39
:10086000C0E0C398F8603B94186008400DD0E0FBEE
:100870000209EDE4FBFAC9FC8028E830E406E4C98B
:10088000FBE4CAFCE830E305E4C9CACBFCE8540742
:100890006010F8C3E913F9EA13FAEB13FBEC13FC4D
:1008A000D8F130F52FC3E49CFCEF9BFFEE9AFEEDF0
:1008B00099FDD0E0FBEF4E4D4C701222DB03020A93
:1008C00012EC2CFCEF33FFEE33FEED33FDED30E7A1
:1008D000EB0209EDEF2BFFEE3AFEED39FDD0E0FB28
:1008E00050130BBB0003020A15ED13FDEE13FEEFD0
:0808F00013FFEC13FC0209EDFB
:1008F800020A15EC5D046005E859047003020A0B4E
:100908001209D6580460F6EC4860F2EC7004FDFE5B
:10091800FF22C860DB2481C85009C39860025006D2
:10092800020A129850CAF582E9294B4A7005AB822F
:10093800020A0175F0007C1A7880C3EF9BEE9AEDED
:1009480099400DC3EF9BFFEE9AFEED99FDE842F04A
:10095800DC23ACF0D0E0FFD0E0FED0E0FDAB82209D
:10096800E7101BEB60BAEC2CFCEF33FFEE33FEED27
:1009780033FD0209EDE803F830E705C0F075F00033
:10098800EF2FFFEE33FEED33FD40B830E7C280AA0B
:1009980075F020800E75F010800575F0087D007EDA
:1009A800007F003392D530D503120C7BEC33401016
:1009B800EF33FFEE33FEED33FDEC33FCD5F0ED22E3
:0E09C800E5F0247EA2D513CC92E7CDCEFF221F
:100CA9003E9248DA3ECCCCCD3F2AAAAB40000000A8
:100CB9003F8000003F9837F03FB504F33FD744FC2D
:100CC9003E3172173EB172173F0515913EDE5BD971
:100CD900D2008002C200EDD2E7F8CD33EC330470C4
:100CE9000BBD800592D5020A15020A0B40FBD314ED
:100CF90060F2F5F07C3FEE7A00C39496C8948B407D
:100D0900230AC89469C8941A401A0AC89468C894EE
:100D19001F40110AC8945AC89425400805F07A0062
:100D2900CDC2E7CDC0F08C438D448E458F46EA2372
:100D390023C0E024B9F582E4340CF583120C99122E
:100D49000807ECC0E0EDC0E0EEC0E0EFC0E0120C37
:100D590089A843A944AA45AB46120803D0E0FBD0B1
:100D6900E0FAD0E0F9D0E0B2E7F81208FB8C438D45
:100D7900448E458F46900CA97403120B26A843A9EB
:100D890044AA45AB46120A20D0E0600F24C5F5827B
:100D9900E4340CF583120C991208078C438D448EA8
:100DA900458F46D0E0C3947FFDE49400FC12099D71
:100DB9007B187A727931783F120A20A843A944AA8C
:100DC90045AB4612080730000B7BD97A5B79DE7890
:050DD9003E120A202279
:100EBD00020A0B22EDA2E7D2E7F9EC3340F260F320
:100ECD00B4FF08ED547F70E8020A15F82481C2E0E2
:100EDD00C0E0F40428FAC313FCED92E7FD8C438DBA
:100EED00448E458F46EEA2E7E9BA7F02C313340064
:100EFD009400FA75F091A4E5F013F494FE8AF0A431
:100F0D0033E5F033248CD313FDE492E7FE7F007CB0
:100F1D003F758302ECC0E0F8EDC0E0F9EEC0E0FAF9
:100F2D00EFC0E0FBAC43AD44AE45AF461208FBD07D
:100F3D00E0FBD0E0FAD0E0F9D0E0F8120807ED645C
:100F4D0080FD30E7011CD583CBED33CC33F8D0E0F9
:0A0F5D00A2E71328C313CC13FD22F2
:1009D600E9D2E7C933E833F892D5EDD2E7CD33EC67
:0709E60033FC5002B2D522E0
:1009ED00EC30E7100FBF000C0EBE00080DBD00046B
:1009FD000BEB6014A2D5EB13FCED92E7FD2274FF17
:100A0D00FCFDFEFF22E480F8A2D574FF13FC7D806F
:030A1D00E480EF83
:100A2000EC4D6011E8497017ED33EC3304600DE4D0
:100A3000FCFFFEFD22E933E8330470F8020A0B12D2
:100A400009D658046009E4CC2481500628500902D4
:100A50000A15284003020A12C0E0EB4A7044B9802C
:100A600006D0E0FB020A01EF4E701CBD8008EBFFD0
:100A7000EAFEE9FD80EBE98DF0A4FEE5F0020B094A
:100A8000E9CDF9EAFEEBFFEF89F0A4FCE5F0CE89B1
:100A9000F0A42EFFE435F0CD89F0A42DFEE435F06E
:100AA0008067EF4E7005BD80D780C3EF8BF0A4AC9C
:100AB000F0EE8BF0A42CFCE435F0F8EF8AF0A42CD7
:100AC000E5F038FCE433CB8DF0A42CFCE5F03BF8EA
:100AD000EE8AF0A42CFCE5F038F8E433CF89F0A4DA
:100AE0002CFCE5F038CF3400CE89F0A42FFFE5F0E0
:100AF0003EFEE433C98DF0A42EFEE5F039CD8AF038
:100B0000A42FFFE5F03EFEE43DFD33D0E0FB5007AF
:100B10000BBB000F020A15EC2CFCEF33FFEE33FE8B
:060B2000ED33FD0209EDBA
:100B2600C0E0EFFBEEFAEDF9ECF8120A20D0E0F5A2
:100B3600F0EFFBEEFAEDF9ECF8120C89A3A3A3A3F0
:100B4600E8C0E0E9C0E0EAC0E0EBC0E0C0F0120AAD
:100B560020120C99A3A3A3A3120807D0F0D0E0FBA0
:0D0B6600D0E0FAD0E0F9D0E0F8D5F0D422CC
:100B7300E709F608DFFA8046E709F208DFFA803E64
:100B830088828C83E709F0A3DFFA8032E309F60851
:100B9300DFFA8078E309F208DFFA807088828C83B9
:100BA300E309F0A3DFFA806489828A83E0A3F6086D
:100BB300DFFA805889828A83E0A3F208DFFA804C47
:100BC30080D280FA80C680D4806980F2803380101E
:100BD30080A680EA809A80A880DA80E280CA803387
:100BE30089828A83ECFAE493A3C8C582C8CCC583FF
:100BF300CCF0A3C8C582C8CCC583CCDFE9DEE780CF
:100C03000D89828A83E493A3F608DFF9ECFAA9F04D
:100C1300EDFB2289828A83ECFAE0A3C8C582C8CCA3
:100C2300C583CCF0A3C8C582C8CCC583CCDFEADEBC
:100C3300E880DB89828A83E493A3F208DFF980CC1E
:100C430088F0EF60010E4E60C388F0ED2402B40417
:100C53000050B9F582EB2402B4040050AF232345BE
:060C63008223900BC37315
:100C6900EF8DF0A4A8F0CF8CF0A428CE8DF0A42E9F
:020C7900FE2259
:0E0C7B00C3E49FFFE49EFEE49DFDE49CFC228A
:100C8900E493FC740193FD740293FE740393FF22B1
:100C9900E493F8740193F9740293FA740393FB22B1
:00000001FF
