:1009350011112222333344445555666677778888EA
:10091F00EF1FAA0670011E4A600BE4FDEDC3947130
:06092F0050EE0D80F722DE
:100800007580FFC280C2811208BC1208EEE4F508B0
:10081000E50825E02435F582E43409F583E493FC0A
:10082000740193FDAF081208910508E508C3940808
:1008300040DE1208D5E4F508AF081208598F90AFD2
:1008400008120859EEF5A07F647E0012091F050802
:09085000E508C3940840E180DCD6
:05095800D281C28122E2
:07095100A200928202095886
:10090700E4FEEF30E704D2828002C282120958EF78
:0809170025E0FF0EBE08EB22F3
:10089100D280D200120951C200120951D2001209AC
:1008A10051120907AF04120907AF05120907C280E7
:0B08B100D28020830512095880F82235
:10085900D280D200120951D200120951C2001209E4
:100869005112090720831AE4FCFDFB120958ED25F2
:10087900E0FDEC33FC3083050DBD00010C0BBB1012
:08088900EAC280AF05AE0422B3
:1008BC00D280D200120951C200120951C200120991
:0908CC00517FC0120907C280220D
:1008D500D280D200120951C200120951C200120978
:0908E50051E4FF120907C2802250
:1008EE00D280D200120951C200120951C20012095F
:0908FE00517F80120907C280221B
:03000000020945AD
:0C094500787FE4F6D8FD758120020800E0
:00000001FF
