:100000007580007590FE30A03830A13B30A23E30A4
:10001000A3417590FD30A04130A14430A24730A3E8
:100020004A7590FB30A04A30A14D30A25030A35306
:100030007590F730A05330A15630A25930A35C011F
:10004000037EAF11A101E17E9C11A501E17E8B1120
:10005000A901E17E7C11AD01E17E7411B101E17E67
:100060006811B501E17E5C11B901E17E5711BD0156
:10007000E17E4E11C101E17E4511C501E17E3E11D7
:10008000C901E17E3911CD01E17E3411D101E17E5A
:100090002E11D501E17E2B11D901E17E2711DD0161
:1000A000E17580002275800122758002227580032F
:1000B00022758004227580052275800622758007CE
:1000C00022758008227580092275800A2275800BAE
:1000D0002275800C2275800D2275800E2275800F8E
:1000E00022C2A611EBD2A611EB01038EF07F06DF30
:0600F000FEDEFAAEF02274
:00000001FF
