:100000007580007590FE30A03830A13A30A23C30A7
:10001000A33E7590FD30A03D30A13F30A24130A3FA
:10002000437590FB30A04230A14430A24630A34833
:100030007590F730A04730A14930A24B30A34D0155
:1000400003758000010375800101037580020103BF
:100050007580030103758004010375800501037534
:100060008006010375800701037580080103758010
:1000700009010375800A010375800B010375800C6B
:10008000010375800D010375800E010375800F015A
:01009000036C
:00000001FF
