:100000007580007590FE30A0F730A1F430A2F13079
:10001000A3EE7590FD30A02930A1E530A2E230A317
:10002000DF7590FB30A0D930A1D630A2D330A3D059
:100030007590F730A0CA30A1C730A2C430A3C10167
:10004000037E7E01957580000103758001010375B3
:10005000800201037580030103758004010375802C
:10006000050103758006010375800701037580088B
:100070000103758009010375800A010375800B0176
:100080000375800C010375800D010375800E01035B
:1000900075800F0103C2A6119FD2A6119F01008E89
:00000001FF
